{
    "contractName": "Lottery",
    "abi": [
        {
            "inputs": [
                {
                    "internalType": "contract LottoToken",
                    "name": "_token",
                    "type": "address"
                }
            ],
            "stateMutability": "nonpayable",
            "type": "constructor"
        },
        {
            "anonymous": false,
            "inputs": [
                {
                    "indexed": false,
                    "internalType": "uint256",
                    "name": "round",
                    "type": "uint256"
                },
                {
                    "indexed": false,
                    "internalType": "address",
                    "name": "buyer",
                    "type": "address"
                },
                {
                    "indexed": false,
                    "internalType": "string",
                    "name": "number",
                    "type": "string"
                },
                {
                    "indexed": false,
                    "internalType": "uint256",
                    "name": "amount",
                    "type": "uint256"
                },
                {
                    "indexed": true,
                    "internalType": "uint256",
                    "name": "timestamp",
                    "type": "uint256"
                }
            ],
            "name": "msgBuyLotto",
            "type": "event"
        },
        {
            "anonymous": false,
            "inputs": [
                {
                    "indexed": false,
                    "internalType": "uint256",
                    "name": "round",
                    "type": "uint256"
                },
                {
                    "indexed": false,
                    "internalType": "string",
                    "name": "number",
                    "type": "string"
                },
                {
                    "indexed": true,
                    "internalType": "uint256",
                    "name": "timestamp",
                    "type": "uint256"
                }
            ],
            "name": "msgDraw",
            "type": "event"
        },
        {
            "anonymous": false,
            "inputs": [
                {
                    "indexed": true,
                    "internalType": "uint256",
                    "name": "round",
                    "type": "uint256"
                },
                {
                    "indexed": false,
                    "internalType": "address",
                    "name": "winnerAddress",
                    "type": "address"
                },
                {
                    "indexed": false,
                    "internalType": "string",
                    "name": "number",
                    "type": "string"
                },
                {
                    "indexed": true,
                    "internalType": "uint256",
                    "name": "timestamp",
                    "type": "uint256"
                }
            ],
            "name": "msgWinner",
            "type": "event"
        },
        {
            "inputs": [
                {
                    "internalType": "uint256",
                    "name": "_round",
                    "type": "uint256"
                },
                {
                    "internalType": "string",
                    "name": "_number",
                    "type": "string"
                }
            ],
            "name": "buyLotto",
            "outputs": [],
            "stateMutability": "payable",
            "type": "function"
        },
        {
            "inputs": [
                {
                    "internalType": "string",
                    "name": "a",
                    "type": "string"
                },
                {
                    "internalType": "string",
                    "name": "b",
                    "type": "string"
                }
            ],
            "name": "compareStrings",
            "outputs": [
                {
                    "internalType": "bool",
                    "name": "",
                    "type": "bool"
                }
            ],
            "stateMutability": "pure",
            "type": "function"
        },
        {
            "inputs": [],
            "name": "count",
            "outputs": [
                {
                    "internalType": "uint256",
                    "name": "",
                    "type": "uint256"
                }
            ],
            "stateMutability": "view",
            "type": "function"
        },
        {
            "inputs": [
                {
                    "internalType": "uint256",
                    "name": "",
                    "type": "uint256"
                }
            ],
            "name": "draw2Symbol",
            "outputs": [
                {
                    "internalType": "uint256",
                    "name": "round",
                    "type": "uint256"
                },
                {
                    "internalType": "string",
                    "name": "number",
                    "type": "string"
                }
            ],
            "stateMutability": "view",
            "type": "function"
        },
        {
            "inputs": [
                {
                    "internalType": "uint256",
                    "name": "",
                    "type": "uint256"
                }
            ],
            "name": "draw3Symbol",
            "outputs": [
                {
                    "internalType": "uint256",
                    "name": "round",
                    "type": "uint256"
                },
                {
                    "internalType": "string",
                    "name": "number",
                    "type": "string"
                }
            ],
            "stateMutability": "view",
            "type": "function"
        },
        {
            "inputs": [],
            "name": "drawCount",
            "outputs": [
                {
                    "internalType": "uint256",
                    "name": "",
                    "type": "uint256"
                }
            ],
            "stateMutability": "view",
            "type": "function"
        },
        {
            "inputs": [
                {
                    "internalType": "uint256",
                    "name": "",
                    "type": "uint256"
                }
            ],
            "name": "draws",
            "outputs": [
                {
                    "internalType": "uint256",
                    "name": "round",
                    "type": "uint256"
                },
                {
                    "internalType": "string",
                    "name": "number",
                    "type": "string"
                }
            ],
            "stateMutability": "view",
            "type": "function"
        },
        {
            "inputs": [
                {
                    "internalType": "uint256",
                    "name": "_round",
                    "type": "uint256"
                }
            ],
            "name": "getWinner",
            "outputs": [],
            "stateMutability": "nonpayable",
            "type": "function"
        },
        {
            "inputs": [
                {
                    "internalType": "uint256",
                    "name": "",
                    "type": "uint256"
                }
            ],
            "name": "lottos",
            "outputs": [
                {
                    "internalType": "uint256",
                    "name": "round",
                    "type": "uint256"
                },
                {
                    "internalType": "address",
                    "name": "buyer",
                    "type": "address"
                },
                {
                    "internalType": "string",
                    "name": "number",
                    "type": "string"
                },
                {
                    "internalType": "uint256",
                    "name": "amount",
                    "type": "uint256"
                },
                {
                    "internalType": "uint256",
                    "name": "timestamp",
                    "type": "uint256"
                }
            ],
            "stateMutability": "view",
            "type": "function"
        },
        {
            "inputs": [],
            "name": "name",
            "outputs": [
                {
                    "internalType": "string",
                    "name": "",
                    "type": "string"
                }
            ],
            "stateMutability": "view",
            "type": "function"
        },
        {
            "inputs": [],
            "name": "resetLotto",
            "outputs": [],
            "stateMutability": "nonpayable",
            "type": "function"
        },
        {
            "inputs": [],
            "name": "roundCount",
            "outputs": [
                {
                    "internalType": "uint256",
                    "name": "",
                    "type": "uint256"
                }
            ],
            "stateMutability": "view",
            "type": "function"
        },
        {
            "inputs": [
                {
                    "internalType": "uint256",
                    "name": "_round",
                    "type": "uint256"
                }
            ],
            "name": "setDraw",
            "outputs": [],
            "stateMutability": "nonpayable",
            "type": "function"
        },
        {
            "inputs": [],
            "name": "winnerCount",
            "outputs": [
                {
                    "internalType": "uint256",
                    "name": "",
                    "type": "uint256"
                }
            ],
            "stateMutability": "view",
            "type": "function"
        },
        {
            "inputs": [
                {
                    "internalType": "uint256",
                    "name": "",
                    "type": "uint256"
                }
            ],
            "name": "winners",
            "outputs": [
                {
                    "internalType": "uint256",
                    "name": "round",
                    "type": "uint256"
                },
                {
                    "internalType": "uint256",
                    "name": "prize",
                    "type": "uint256"
                },
                {
                    "internalType": "address",
                    "name": "buyer",
                    "type": "address"
                },
                {
                    "internalType": "string",
                    "name": "number",
                    "type": "string"
                },
                {
                    "internalType": "uint256",
                    "name": "amount",
                    "type": "uint256"
                }
            ],
            "stateMutability": "view",
            "type": "function"
        }
    ],
    "bytecode": "60c060405260076080819052664c6f747465727960c81b60a09081526200002a9160039190620000a3565b506000600455600060055560006006556000600c553480156200004c57600080fd5b5060405162001a4738038062001a478339810160408190526200006f9162000149565b60008054336001600160a01b031991821617909155600280549091166001600160a01b0392909216919091179055620001b6565b828054620000b19062000179565b90600052602060002090601f016020900481019282620000d5576000855562000120565b82601f10620000f057805160ff191683800117855562000120565b8280016001018555821562000120579182015b828111156200012057825182559160200191906001019062000103565b506200012e92915062000132565b5090565b5b808211156200012e576000815560010162000133565b6000602082840312156200015b578081fd5b81516001600160a01b038116811462000172578182fd5b9392505050565b6002810460018216806200018e57607f821691505b60208210811415620001b057634e487b7160e01b600052602260045260246000fd5b50919050565b61188180620001c66000396000f3fe6080604052600436106100e85760003560e01c806363ef8d9e1161008a578063caa02e0811610059578063caa02e0814610278578063d0e70f2f1461028d578063d20e7aa2146102ad578063fef2963a146102cd576100e8565b806363ef8d9e146101e5578063a2fb1175146101fa578063b56578351461022b578063bed34bba1461024b576100e8565b80630cc36c36116100c65780630cc36c361461014f578063127f0b3f1461017d57806334fa9b42146101925780634129b2c9146101c3576100e8565b806306661abd146100ed57806306fdde031461011857806308222d581461013a575b600080fd5b3480156100f957600080fd5b506101026102e0565b60405161010f91906115d1565b60405180910390f35b34801561012457600080fd5b5061012d6102e6565b60405161010f9190611609565b34801561014657600080fd5b50610102610374565b34801561015b57600080fd5b5061016f61016a366004611536565b61037a565b60405161010f9291906116cc565b34801561018957600080fd5b5061010261041f565b34801561019e57600080fd5b506101b26101ad366004611536565b610425565b60405161010f95949392919061168e565b3480156101cf57600080fd5b506101e36101de366004611536565b6104e6565b005b3480156101f157600080fd5b506101e3610ca7565b34801561020657600080fd5b5061021a610215366004611536565b610ccf565b60405161010f9594939291906116ed565b34801561023757600080fd5b506101e3610246366004611536565b610d92565b34801561025757600080fd5b5061026b6102663660046114d5565b610f38565b60405161010f91906115fe565b34801561028457600080fd5b50610102610f91565b34801561029957600080fd5b5061016f6102a8366004611536565b610f97565b3480156102b957600080fd5b5061016f6102c8366004611536565b610fb9565b6101e36102db36600461154e565b610fdb565b60045481565b600380546102f39061179f565b80601f016020809104026020016040519081016040528092919081815260200182805461031f9061179f565b801561036c5780601f106103415761010080835404028352916020019161036c565b820191906000526020600020905b81548152906001019060200180831161034f57829003601f168201915b505050505081565b60055481565b6008602052600090815260409020805460018201805491929161039c9061179f565b80601f01602080910402602001604051908101604052809291908181526020018280546103c89061179f565b80156104155780601f106103ea57610100808354040283529160200191610415565b820191906000526020600020905b8154815290600101906020018083116103f857829003601f168201915b5050505050905082565b60065481565b60076020526000908152604090208054600182015460028301805492936001600160a01b03909216926104579061179f565b80601f01602080910402602001604051908101604052809291908181526020018280546104839061179f565b80156104d05780601f106104a5576101008083540402835291602001916104d0565b820191906000526020600020905b8154815290600101906020018083116104b357829003601f168201915b5050505050908060030154908060040154905085565b60005b600554811015610ca357600081815260086020526040902054821415610c915760005b600454811015610c8f576000818152600760205260409020548314801561066e57506000818152600760205260409020600201805461066e919061054f9061179f565b80601f016020809104026020016040519081016040528092919081815260200182805461057b9061179f565b80156105c85780601f1061059d576101008083540402835291602001916105c8565b820191906000526020600020905b8154815290600101906020018083116105ab57829003601f168201915b505050600086815260086020526040902060010180549092506105eb915061179f565b80601f01602080910402602001604051908101604052809291908181526020018280546106179061179f565b80156106645780601f1061063957610100808354040283529160200191610664565b820191906000526020600020905b81548152906001019060200180831161064757829003601f168201915b5050505050610f38565b156107e5576040805160a0810182528481526001602080830182905260008581526007808352858220938401546001600160a01b03169585019590955285905292909252600290910180546060830191906106c89061179f565b80601f01602080910402602001604051908101604052809291908181526020018280546106f49061179f565b80156107415780601f1061071657610100808354040283529160200191610741565b820191906000526020600020905b81548152906001019060200180831161072457829003601f168201915b5050509183525050600083815260076020908152604080832060039081015494830194909452600c548352600b82529182902084518155848201516001820155918401516002830180546001600160a01b0319166001600160a01b039092169190911790556060840151805192936107c193908501929190910190611394565b5060809190910151600490910155600c80549060006107df836117da565b91905055505b600081815260076020526040902054831480156108ba5750600081815260076020526040902060020180546108ba919061081e9061179f565b80601f016020809104026020016040519081016040528092919081815260200182805461084a9061179f565b80156108975780601f1061086c57610100808354040283529160200191610897565b820191906000526020600020905b81548152906001019060200180831161087a57829003601f168201915b505050600086815260096020526040902060010180549092506105eb915061179f565b15610a30576040805160a081018252848152600260208083018290526000858152600780835285822060018101546001600160a01b0316968601969096529086905290529190910180546060830191906109139061179f565b80601f016020809104026020016040519081016040528092919081815260200182805461093f9061179f565b801561098c5780601f106109615761010080835404028352916020019161098c565b820191906000526020600020905b81548152906001019060200180831161096f57829003601f168201915b5050509183525050600083815260076020908152604080832060039081015494830194909452600c548352600b82529182902084518155848201516001820155918401516002830180546001600160a01b0319166001600160a01b03909216919091179055606084015180519293610a0c93908501929190910190611394565b5060809190910151600490910155600c8054906000610a2a836117da565b91905055505b60008181526007602052604090205483148015610b05575060008181526007602052604090206002018054610b059190610a699061179f565b80601f0160208091040260200160405190810160405280929190818152602001828054610a959061179f565b8015610ae25780601f10610ab757610100808354040283529160200191610ae2565b820191906000526020600020905b815481529060010190602001808311610ac557829003601f168201915b5050506000868152600a6020526040902060010180549092506105eb915061179f565b15610c7d576040805160a08101825284815260036020808301919091526000848152600780835284822060018101546001600160a01b03169585019590955290859052905260029091018054606083019190610b609061179f565b80601f0160208091040260200160405190810160405280929190818152602001828054610b8c9061179f565b8015610bd95780601f10610bae57610100808354040283529160200191610bd9565b820191906000526020600020905b815481529060010190602001808311610bbc57829003601f168201915b5050509183525050600083815260076020908152604080832060039081015494830194909452600c548352600b82529182902084518155848201516001820155918401516002830180546001600160a01b0319166001600160a01b03909216919091179055606084015180519293610c5993908501929190910190611394565b5060809190910151600490910155600c8054906000610c77836117da565b91905055505b80610c87816117da565b91505061050c565b505b80610c9b816117da565b9150506104e9565b5050565b6000546001600160a01b03163314610cbe57600080fd5b6000600c8190556004819055600555565b600b602052600090815260409020805460018201546002830154600384018054939492936001600160a01b039092169291610d099061179f565b80601f0160208091040260200160405190810160405280929190818152602001828054610d359061179f565b8015610d825780601f10610d5757610100808354040283529160200191610d82565b820191906000526020600020905b815481529060010190602001808311610d6557829003601f168201915b5050505050908060040154905085565b6000546001600160a01b03163314610da957600080fd5b600042604051602001610dbc91906115d1565b6040516020818303038152906040528051906020012060001c90506000610de282611178565b90506000610df3826000600661129d565b90506000610e04836003600661129d565b90506000610e15846004600661129d565b60408051808201825288815260208082018781526005546000908152600883529390932082518155925180519495509193610e569260018501920190611394565b50506040805180820182528881526020808201868152600554600090815260098352939093208251815592518051929450610e9a9260018501929190910190611394565b505060408051808201825288815260208082018581526005546000908152600a8352939093208251815592518051929450610ede9260018501929190910190611394565b50506005805491506000610ef1836117da565b9190505550427f4eaae7bdff12356ad73c8a205b63583820546d8f72d7588e20fafbdc63c6756d8785604051610f289291906116cc565b60405180910390a2505050505050565b600081604051602001610f4b91906115b5565b6040516020818303038152906040528051906020012083604051602001610f7291906115b5565b6040516020818303038152906040528051906020012014905092915050565b600c5481565b6009602052600090815260409020805460018201805491929161039c9061179f565b600a602052600090815260409020805460018201805491929161039c9061179f565b671bc16d674ec8000034101561100c5760405162461bcd60e51b81526004016110039061161c565b60405180910390fd5b6002546040516323b872dd60e01b815234916001600160a01b0316906323b872dd90611040903390309086906004016115da565b602060405180830381600087803b15801561105a57600080fd5b505af115801561106e573d6000803e3d6000fd5b505050506040513d601f19601f8201168201806040525081019061109291906114ae565b506040805160a08101825284815233602080830191825282840186815260608401869052426080850152600454600090815260078352949094208351815591516001830180546001600160a01b0319166001600160a01b03909216919091179055925180519293919261110b9260028501920190611394565b50606082015160038201556080909101516004918201558054906000611130836117da565b9190505550427f368782c775c4e58580bf26228cb0906dab3e05fd4b0def3eccf2aa8f9d0d4e488433858560405161116b9493929190611653565b60405180910390a2505050565b60608161119d57506040805180820190915260018152600360fc1b6020820152611298565b8160005b81156111c757806111b1816117da565b91506111c09050600a83611744565b91506111a1565b60008167ffffffffffffffff8111156111f057634e487b7160e01b600052604160045260246000fd5b6040519080825280601f01601f19166020018201604052801561121a576020820181803683370190505b5090505b84156112935761122f600183611758565b915061123c600a866117f5565b61124790603061172c565b60f81b81838151811061126a57634e487b7160e01b600052603260045260246000fd5b60200101906001600160f81b031916908160001a90535061128c600a86611744565b945061121e565b925050505b919050565b60608360006112ac8585611758565b67ffffffffffffffff8111156112d257634e487b7160e01b600052604160045260246000fd5b6040519080825280601f01601f1916602001820160405280156112fc576020820181803683370190505b509050845b8481101561138a5782818151811061132957634e487b7160e01b600052603260045260246000fd5b01602001516001600160f81b031916826113438884611758565b8151811061136157634e487b7160e01b600052603260045260246000fd5b60200101906001600160f81b031916908160001a90535080611382816117da565b915050611301565b5095945050505050565b8280546113a09061179f565b90600052602060002090601f0160209004810192826113c25760008555611408565b82601f106113db57805160ff1916838001178555611408565b82800160010185558215611408579182015b828111156114085782518255916020019190600101906113ed565b50611414929150611418565b5090565b5b808211156114145760008155600101611419565b600082601f83011261143d578081fd5b813567ffffffffffffffff8082111561145857611458611835565b604051601f8301601f19168101602001828111828210171561147c5761147c611835565b604052828152848301602001861015611493578384fd5b82602086016020830137918201602001929092529392505050565b6000602082840312156114bf578081fd5b815180151581146114ce578182fd5b9392505050565b600080604083850312156114e7578081fd5b823567ffffffffffffffff808211156114fe578283fd5b61150a8683870161142d565b9350602085013591508082111561151f578283fd5b5061152c8582860161142d565b9150509250929050565b600060208284031215611547578081fd5b5035919050565b60008060408385031215611560578182fd5b82359150602083013567ffffffffffffffff81111561157d578182fd5b61152c8582860161142d565b600081518084526115a181602086016020860161176f565b601f01601f19169290920160200192915050565b600082516115c781846020870161176f565b9190910192915050565b90815260200190565b6001600160a01b039384168152919092166020820152604081019190915260600190565b901515815260200190565b6000602082526114ce6020830184611589565b60208082526017908201527f6d75737420627579206174206c656173742032204c5454000000000000000000604082015260600190565b8481526001600160a01b038416602082015260806040820181905260009061167d90830185611589565b905082606083015295945050505050565b8581526001600160a01b038516602082015260a0604082018190526000906116b890830186611589565b606083019490945250608001529392505050565b6000838252604060208301526116e56040830184611589565b949350505050565b600086825285602083015260018060a01b038516604083015260a0606083015261171a60a0830185611589565b90508260808301529695505050505050565b6000821982111561173f5761173f611809565b500190565b6000826117535761175361181f565b500490565b60008282101561176a5761176a611809565b500390565b60005b8381101561178a578181015183820152602001611772565b83811115611799576000848401525b50505050565b6002810460018216806117b357607f821691505b602082108114156117d457634e487b7160e01b600052602260045260246000fd5b50919050565b60006000198214156117ee576117ee611809565b5060010190565b6000826118045761180461181f565b500690565b634e487b7160e01b600052601160045260246000fd5b634e487b7160e01b600052601260045260246000fd5b634e487b7160e01b600052604160045260246000fdfea26469706673582212201aaf6770d3e71789287bd2e850089770edc047e0b491fb522f57b3c4eefd526e64736f6c63430008000033",
    "sourcePath": "d:/Projects/BlockchainProject/lotto/contracts/lotto.sol",
    "compiler": {
        "name": "solc",
        "version": "0.8.0+commit.c7dfd78e"
    },
    "functionHashes": {
        "buyLotto(uint256,string)": "fef2963a",
        "compareStrings(string,string)": "bed34bba",
        "count()": "06661abd",
        "draw2Symbol(uint256)": "d20e7aa2",
        "draw3Symbol(uint256)": "d0e70f2f",
        "drawCount()": "08222d58",
        "draws(uint256)": "0cc36c36",
        "getWinner(uint256)": "4129b2c9",
        "lottos(uint256)": "34fa9b42",
        "name()": "06fdde03",
        "resetLotto()": "63ef8d9e",
        "roundCount()": "127f0b3f",
        "setDraw(uint256)": "b5657835",
        "winnerCount()": "caa02e08",
        "winners(uint256)": "a2fb1175"
    },
    "gasEstimates": {
        "creation": {
            "codeDepositCost": "1254600",
            "executionCost": "infinite",
            "totalCost": "infinite"
        },
        "external": {
            "buyLotto(uint256,string)": "infinite",
            "compareStrings(string,string)": "infinite",
            "count()": "1052",
            "draw2Symbol(uint256)": "infinite",
            "draw3Symbol(uint256)": "infinite",
            "drawCount()": "1096",
            "draws(uint256)": "infinite",
            "getWinner(uint256)": "infinite",
            "lottos(uint256)": "infinite",
            "name()": "infinite",
            "resetLotto()": "16031",
            "roundCount()": "1073",
            "setDraw(uint256)": "infinite",
            "winnerCount()": "1050",
            "winners(uint256)": "infinite"
        },
        "internal": {
            "substring(string memory,uint256,uint256)": "infinite"
        }
    }
}